:10000000F7C000001DC100001BC1000019C10000A5
:1000100017C1000015C1000013C1000011C100008C
:100020000FC100000DC10000B3C700002FC60000C3
:1000300007C1000005C1000003C1000001C10000AC
:10004000FFC00000FDC00000FBC00000F9C00000C0
:10005000F7C00000F5C00000F3C0000055C5000067
:10006000EFC000000C9482080C94A9080C94EB08D3
:10007000E7C00000E5C00000E3C00000E1C00000F0
:10008000DFC00000DDC00000DBC00000D9C0000000
:10009000D7C00000D5C00000D3C00000D1C0000010
:1000A000CFC00000CDC00000CBC000000123022360
:1000B0000423082380230129022904290829402632
:1000C000802640298029102320234023802F402F81
:1000D000202F102F022F012F10292029402C7DFDC9
:1000E0007DFB7DF77DEF7DDF7E7F7EBF7EDF7EEF58
:1000F0007EFD7EFE7DFE0001040506070D0C0B0A49
:1001000009080A0B0C0D0706050401000800010090
:100110000041011200020000530143000300009659
:100120000104010309049A012002030904BC011E11
:1001300003030904DC010C0001C1020180360181C6
:10014000361201000202000020C0168304000101E3
:1001500002030109024300020100C0320904000049
:100160000102020100052400100105240100010420
:100170002402060524060001070582030800400941
:10018000040100020A000000070503024000000706
:1001900005840240000004030904200348006500B0
:1001A00072006F0069006300200052006F0062005F
:1001B0006F00740069006300730000001E035000AC
:1001C0006900780065006C005000750073006800DD
:1001D0006500720020004D00500000000C0331004B
:1001E000320033003400350000002101D408300C07
:1001F00011241FBECFEFDAE0DEBFCDBF12E0A0E0DA
:10020000B1E0E4EAF9E102C005900D92A03BB1072C
:10021000D9F713E0A0EBB2E001C01D92A435B107FD
:10022000E1F711E0C0EFD1E004C02297FE010E9487
:10023000C40CCA3ED107C9F70E9471090C94D00CB6
:10024000DFCEE0EBF2E088E0DF011D928A95E9F76E
:100250001092B20288EE93E0A0E0B0E08093B30287
:100260009093B402A093B502B093B6021092B70275
:1002700083E992E09093B1028093B0020895BF9217
:10028000CF92DF92EF92FF920F931F936C017A014E
:100290008B01B22ECB01BA0196958795779567951C
:1002A00060587B47814E9F4FA80197010E94A00C88
:1002B000C601B9014B2DDCD71F910F91FF90EF9034
:1002C000DF90CF90BF9008958AE493E00E941F0CC6
:1002D000882309F44BC08091C702882301F18AE486
:1002E00093E00E940F0C982F8093C3028091C50267
:1002F000981719F01A9B36C02A989093C5028AE481
:1003000093E00E94130C982F8093C4028091C60240
:10031000981719F0199B28C029989093C6028AE46F
:1003200093E00E94060C20915702309158024091B0
:10033000590250915A026217730784079507B1F06A
:100340008AE493E00E94060CAB01BC014093570283
:10035000509358026093590270935A0280EB92E0D6
:100360002FEF8DCF2A9AC9CF299AD7CF0895CF934F
:10037000DF93DB010D900020E9F71197A61BB70B67
:10038000EC01E881F9810280F381E02DAD0109954E
:10039000DF91CF910895EF92FF920F931F937C010D
:1003A000E6DF8C01C701CBD79C01200F311FC901AB
:1003B0001F910F91FF90EF9008950F931F932A982C
:1003C0006091B8027091B902660F771F660F771FB0
:1003D000882777FD8095982FD7D30AE413E0C801CA
:1003E00060E071E0C4DF4091B8025091B902440F5F
:1003F000551F440F551F662757FD6095762FC8017E
:100400000E94460AC8016FE071E0C5DF2A9A1F9179
:100410000F91089588EC92E060E070E07BD28093C9
:10042000B8021092B9022A9A299A229A219A4091E6
:100430005702509158026091590270915A028AE411
:1004400093E00E944E0C40915702509158026091E7
:10045000590270915A0280EB92E02FEF10DF8AE48C
:1004600093E00E941A0C882359F08AE493E067D73E
:100470008AE493E064D78AE493E06DE171E08BDF76
:100480009CCF0F931F93F89481E08093E00080E26B
:100490008093D80009EC10E0F801108265E070E06C
:1004A00080E090E071D31DBA109268001CBC10BEB1
:1004B0001FBA10927A0010926E0010926F00109284
:1004C000710010927200F8011082ECEBF0E01082E3
:1004D00014B817B81AB81DB810BA108215B818B8E1
:1004E0001BB81EB811BA0C94003F1F910F910895CC
:1004F000992787FD90950E94C80C813414F087538A
:10050000089580530895CF92DF92FF920F931F9327
:10051000DF93CF930F92CDB7DEB780EB92E0B2D5E9
:10052000892B09F472C080EB92E0CDD58093C20292
:100530008AE493E00E941A0C882361F08091C20241
:1005400089838AE493E0BE016F5F7F4F41E050E012
:100550000E94EF0A4091BF028091C20290E0E42F16
:10056000FF27E7FDF095E158FD4F2081332727FD58
:1005700030958217930721F44F5F4093BF0202C06A
:100580001092BF028091BF02873009F03EC08AE41A
:1005900093E00E941A0C882329F08AE493E064E433
:1005A00071E0F9DE01E010E06E010894C11CD11C7D
:1005B00088EC92E0B801AED1F82E80EB92E06F2D7E
:1005C00025D68AE493E00E941A0C882341F0F98230
:1005D0008AE493E0B60141E050E00E94EF0A8FEF19
:1005E000F81631F00F5F1F4F83E00F3F180701F738
:1005F0008AE493E00E941A0C882329F08AE493E0AD
:100600006DE671E0C8DE1092BF020F90CF91DF91CE
:100610001F910F91FF90DF90CF900895EF92FF927E
:100620000F931F93DF93CF930F92CDB7DEB78AE47A
:1006300093E055D7892B09F45CC18AE493E088D70D
:10064000682F8093C20280EB92E0E0D58091C202D5
:10065000482F50E02091BA02E22FFF27E7FDF095E6
:10066000E55AFD4F8081992787FD909548175907D6
:1006700021F42F5F2093BA0202C01092BA02209197
:10068000BC02E22FFF27E7FDF095E759FD4F80817F
:10069000992787FD90954817590721F42F5F2093DC
:1006A000BC0202C01092BC022091BB02E22FFF27C5
:1006B000E7FDF095EE59FD4F8081992787FD9095D4
:1006C0004817590721F42F5F2093BB0202C01092F4
:1006D000BB022091BD02E22FFF27E7FDF095E05914
:1006E000FD4F8081992787FD90954817590721F480
:1006F0002F5F2093BD0202C01092BD022091BE0266
:10070000E22FFF27E7FDF095E858FD4F80819927FC
:1007100087FD90954817590721F42F5F2093BE025B
:1007200002C01092BE028091BA02863019F481E0B4
:100730008093C7028091BB02863009F4A2DE8091CB
:10074000BC02863041F48AE493E06FE871E023DE76
:1007500034DE1092BC028091BE02863009F060C087
:100760008AE493E066EB71E016DE81E090E090931E
:10077000C1028093C00210E07E010894E11CF11CCC
:100780002CC0112349F48AE493E0A9D6892BD9F32C
:100790008AE493E0DDD6082F6091C0027091C10217
:1007A00088EC92E0402FBDD0112359F409838AE4EC
:1007B00093E0B70141E050E012D780EB92E0602F68
:1007C00025D50F3F09F411E08091C0029091C1023C
:1007D00001969093C1028093C0028091C0029091D3
:1007E000C1028F5F93406CF28AE493E06AED71E09E
:1007F000D2DD8AE493E06DED71E0B9DD4091C00295
:100800005091C102662757FD6095762F8AE493E0E8
:100810003DD68AE493E061EF71E0BDDD1092BE0247
:100820008091BD02873009F064C08AE493E06BEFE9
:1008300071E0B1DD8AE493E052D6892BD9F38AE4E2
:1008400093E086D6182FE0914A03F0914B03019074
:10085000F081E02D8AE493E0612F09958AE493E02A
:100860003ED6892BD9F38AE493E072D6F82EE09134
:100870004A03F0914B030190F081E02D8AE493E06C
:100880006F2D09958AE493E05AD5812F31DE082F28
:100890008F2D2EDE112707FD109574E0000F111F1C
:1008A0007A95E1F7992787FD9095082B192B8AE413
:1008B00093E062E272E05BDDA801440F551F440F34
:1008C000551F662757FD6095762F8AE493E0DED5A5
:1008D0008AE493E068E472E05EDD88EC92E060E038
:1008E00070E0402F1ED01093B9020093B80210920E
:1008F000BD020F90CF91DF911F910F91FF90EF906C
:10090000089501DE8AE493E095D7882311F086DE0E
:10091000DBCC0895F999FECF72BD61BDF89A80B520
:100920000895F999FECF1FBA72BD61BD40BD0FB6E3
:10093000F894FA9AF99A0FBE0895893170F4ECEAA6
:10094000F0E0880FE80FF11D9591E491F0E02FB7EA
:10095000F8948181892B81832FBF0895E93150F468
:10096000EE0FE554FB4F0994E93120F4EE0FE3510B
:10097000FB4F09940895289A0895299A08952A9A70
:1009800008952B9A08952F9A6AC0589A58C0599A78
:1009900008955A9A08955B9A0895469A66C0479AB0
:1009A0006AC05E9A08955F9A6CC02C9A08952D9A39
:1009B0004AC02E9A4EC08F9A08958E9A08958D9AA5
:1009C00008958C9A0895899A0895889A08955C9A52
:1009D00008955D9A0895769A08952898089529981B
:1009E00008952A9808952B9808952F9838C05898FC
:1009F00026C0599808955A9808955B980895469886
:100A000034C0479838C05E9808955F983AC02C98D3
:100A100008952D9818C02E981CC08F9808958E9810
:100A200008958D9808958C980895899808958898C8
:100A300008955C9808955D98089576980895E4B5B2
:100A4000EF7DE4BD0895E0918000EF77E0938000B2
:100A50000895E0918000EF7DE09380000895E0919B
:100A60008000E77FE09380000895E0919000EF77A9
:100A7000E09390000895E091C000EF77E093C0000C
:100A80000895E091C200E77FE093C20008951DBA87
:100A9000109268001CBC10BE1FBA10927A0010920F
:100AA0006E0010926F0010927100109272001092FE
:100AB000C900ECEBF0E0108214B817B81AB81DB8F2
:100AC00010BA108215B818B81BB81EB811BA08951C
:100AD000F89480E29EE40197F1F781E08093E000D2
:100AE00080E28093D80080E69AEE0197F1F7CFDF9D
:100AF0000C94003FFFCFF894CADF80E69AEE01978E
:100B0000F1F70C940000FFCF8F938FB78F938091F4
:100B1000D1028D5F8D37D0F48093D1028091CD02C8
:100B20008F5F8093CD02D8F08091CE028F4F80935B
:100B3000CE02A8F08091CF028F4F8093CF0278F041
:100B40008091D0028F4F8093D00209C08D5780933F
:100B5000D1028091CD028E5F8093CD0228F78091E3
:100B6000C9028C5F8093C90258F08091CA028F4FEE
:100B70008093CA0228F08091CB028F4F8093CB02E2
:100B80008F918FBF8F9118959B01AC0114D0FB0101
:100B90000CC011D06E1B7F0B685E7340D0F32150E8
:100BA000304040405040E851FC4F2115310541058F
:100BB000510579F708950FB6F89466B515B270919E
:100BC000C9028091CA029091CB020FBE10FE05C0EF
:100BD0006F3F19F07C5F8F4F9F4F11240024660FE9
:100BE000001C660F001C70290895F894E1E6F0E0FF
:100BF00020E82083108283E084BD85BDEEE6F0E02E
:100C000080818160808391E09093800082E0809376
:100C1000810090939000809391008093C00084E0C5
:100C20008093C1009093C2009093C3001092C400BF
:100C300086E880937A0020937B0010927E001092C9
:100C40007D0002D0789408958091D80087FF02C07B
:100C500085FF1BC081E08093D70080EA8093D80095
:100C600082E189BD09B400FEFDCF80E98093D80000
:100C70001092E00010925403109255031092560304
:100C80001092E1008DE08093E20008951F920F9290
:100C90000FB60F9211242F933F934F935F936F934F
:100CA0007F938F939F93AF93BF93EF93FF93109294
:100CB000E9008091E80083FF57C12091F1009091F5
:100CC000F1004091F1005091F1006091F1007091BC
:100CD000F100A091F100B091F10082EF8093E80063
:100CE000963009F044C0EDE0F1E020E08591959167
:100CF0008417950711F0359617C085919591861741
:100D0000970711F0339610C0259135914491CD018C
:100D1000AF3FB10519F010F08FEF90E0841708F4A1
:100D2000482FF9015EEF04C02F5F2630F9F61CC191
:100D30008091E800282F30E0C90185709070892BE0
:100D4000B9F322FD14C1242F413208F020E2922F82
:100D500004C085918093F10091509923D1F7421BF3
:100D60005093E800442321F7203211F300C195305D
:100D700061F48EEF8093E8008091E80080FFFCCF63
:100D8000842F80688093E300F2C0993009F5222314
:100D900009F0EAC040935403109256031092D20215
:100DA0008EEF8093E800E7E3F1E091E09093E900B3
:100DB00085918093EB00882331F085918093EC003E
:100DC00085918093ED009F5F953081F78EE1C7C0DC
:100DD000983061F4203809F0C7C08091E80080FFA6
:100DE000FCCF809154038093F10096C09132A9F416
:100DF000213A09F0B9C08091E80080FFFCCF20E0E3
:100E000030E0F901E957FD4F80818093F1002F5FB9
:100E10003F4F27303105A9F77FC0903209F04BC012
:100E2000213209F0A1C08091E80082FFFCCF20E0D0
:100E300030E0F901E957FD4F8091F10080832F5F89
:100E40003F4F27303105A9F78BEF8093E8008EEFF5
:100E50008093E8008091870290918802A091890296
:100E6000B0918A0286389105A105B10519F48FE089
:100E70008093D3028091870290918802A091890289
:100E8000B0918A0286399105A105B10509F06FC0BC
:100E900084E08093E9002FEF06C02093E800809162
:100EA000E80082FDFCCF8091EE0090E083709070AE
:100EB000892B99F720DE923251F4213209F054C087
:100EC000409356038091E80080FFFCCF25C0933209
:100ED00041F4213209F048C08091E80080FFFCCF46
:100EE0001BC09923E9F48091E80080FFFCCF2238F1
:100EF00011F080E00DC06093E9008091EB0090E07C
:100F000025E0969587952A95E1F781701092E90082
:100F10008093F1001092F1008EEF8093E80027C0DB
:100F2000913011F0933001F52230F1F4452BE1F4CA
:100F3000262F2F77822F81508630B0F48EEF80934A
:100F4000E8002093E900933079F089E18093EB0089
:100F500081E090E002C0880F991F2A95E2F7809304
:100F6000EA001092EA0003C081E28093EB00FF9157
:100F7000EF91BF91AF919F918F917F916F915F9111
:100F80004F913F912F910F900FBE0F901F9018958A
:100F90001F920F920FB60F9211242F933F934F93EE
:100FA0005F936F937F938F939F93AF93BF93EF93D1
:100FB000FF938091E1001092E100982F83FF11C010
:100FC0001092E90081E08093EB001092EC0082E245
:100FD0008093ED0088E08093F0001092540310920B
:100FE000560392FF1DC0809154038823C9F080915D
:100FF000D202882359F081508093D202882331F4A1
:1010000084E08093E9008AE38093E8008091D30232
:10101000882331F081508093D302882309F458DD6E
:1010200090FF0CC080E18093E2001092540381E0B5
:101030008093550380EA8093D80019BC80915503B2
:10104000882379F094FF0DC082E189BD09B400FEC8
:10105000FDCF80E98093D8008DE08093E20010926C
:101060005503FF91EF91BF91AF919F918F917F9128
:101070006F915F914F913F912F910F900FBE0F9005
:101080001F9018959091080380910903292F30E053
:10109000482F50E0981710F4205C3F4F241B350B6D
:1010A000C901089580910803E09109038E1719F48E
:1010B000EFEFFFEF06C0F0E0E65FFC4F8081E82F26
:1010C000F0E0CF01089590910803809109039817EB
:1010D00019F42FEF3FEF0FC0209109032F5F203449
:1010E00008F020E0E22FF0E0E65FFC4F80812093E3
:1010F0000903282F30E0C90108958091DD0288237B
:10110000E1F708951F920F920FB60F9211242F93BB
:101110008F939F93EF93FF932091CE0090910803BC
:101120009F5F903408F090E080910903981739F0A0
:10113000E92FF0E0E65FFC4F208390930803FF91D6
:10114000EF919F918F912F910F900FBE0F901F9055
:1011500018951F920F920FB60F9211248F939F93A1
:10116000EF93FF939091DE028091DF02981721F4B4
:1011700088ED8093C9000FC09091DF029F5F983285
:1011800008F090E0E92FF0E0E052FD4F808180937D
:10119000CE009093DF02FF91EF919F918F910F907E
:1011A0000FBE0F901F9018951092D70288EE93E013
:1011B000A0E0B0E08093D8029093D902A093DA0225
:1011C000B093DB021092DC0283E992E09093D602A6
:1011D0008093D50208951F920F920FB60F9211249B
:1011E0008F93EF93FF931092DD0280918E028F3FD9
:1011F00029F080918E02E82FF0E0B6DBFF91EF91AD
:101200008F910F900FBE0F901F901895FC01809149
:10121000C90083FD05C081E0828320E030E026C064
:1012200080918E028F3F49F08091DD02882329F45E
:1012300080918E02E82FF0E091DB9091DE029F5FBB
:10124000983208F090E08091DF028917E1F3E92FEE
:10125000F0E0E052FD4F608381E08093DD029093E7
:10126000DE0288EF8093C90021E030E0C9010895D3
:101270001F93CF93DF93EB01142F40938E024F3FC8
:1012800029F0842F5ADBE12FF0E06EDBC0FF08C0AD
:1012900080E1C130D80720F482E08093C80004C008
:1012A0001092C800D695C7952197D093CD00C093D2
:1012B000CC008091C90083FD10C0109208031092E9
:1012C00009031092DE021092DF021092DD0286E026
:1012D0008093CA0088ED8093C900DF91CF911F9160
:1012E000089583DC97D80DDBFECFCF92DF92EF928B
:1012F000FF920F931F93CF93DF937C016B018A01C1
:10130000C0E0D0E00FC0D6016D916D01D701ED9125
:10131000FC910190F081E02DC7010995C80FD91FFC
:10132000015010400115110571F7CE01DF91CF91E9
:101330001F910F91FF90EF90DF90CF900895DF9372
:10134000CF9300D0CDB7DEB7DC018DE089838AE092
:101350008A83ED91FC9111970280F381E02DCD01FC
:10136000BE016F5F7F4F42E050E009950F900F90F4
:10137000CF91DF9108954F925F926F927F928F92FB
:101380009F92AF92BF92CF92DF92EF92FF920F9314
:101390001F93DF93CF93CDB7DEB7A1970FB6F89425
:1013A000DEBF0FBECDBF3C016A017B01222349F4A1
:1013B000DC01ED91FC910190F081E02D642F099505
:1013C0004EC0213009F42AE0C114D104E104F10433
:1013D00021F480E389A310E227C010E2822E992431
:1013E000AA24BB242E010894411C511CC701B6013C
:1013F000A5019401A5D26A3010F4605D01C0695C5A
:10140000F201E10FF11D6083C701B601A50194014E
:1014100097D2C901DA016C017D01C114D104E10444
:10142000F10411F01150E2CF002331F01150FE0110
:10143000E10FF11D8DE28183812F90E0D301ED91C9
:10144000FC91BE016F5F7F4F680F791F41E250E052
:10145000481B590B0280F381E02DC3010995A19629
:101460000FB6F894DEBF0FBECDBFCF91DF911F91B5
:101470000F91FF90EF90DF90CF90BF90AF909F9033
:101480008F907F906F905F904F9008950F9377FDAE
:1014900002C000E008C070956095509541955F4F7F
:1014A0006F4F7F4F0DE22AE066DF0F910895DF93C3
:1014B000CF930F92CDB7DEB7FC016983A081B181D4
:1014C00012962D913C911397BE016F5F7F4F41E0C3
:1014D00050E0F90109950F90CF91DF910895FC013B
:1014E0009FB7F89480915403882311F420E010C032
:1014F00083E08093E9002091F200222349F4809157
:10150000E80082FF05C085FD03C08BE68093E800FC
:101510009FBF8085918597FD03C02F3F09F02F5F06
:10152000822F90E00895CF93DF93EC018885998511
:1015300097FF09C0E881F9810680F781E02DCE018F
:1015400009959987888788859985DF91CF91089536
:10155000FC012085318537FD05C08FEF9FEF918716
:10156000808722C02FB7F89480915403882369F0B4
:1015700083E08093E9009BE68091E80085FD09C047
:1015800082FF03C09093E800F7CF2FBF2FEF3FEF0C
:101590000CC09091F1008091E80085FD03C08BE6BE
:1015A0008093E8002FBF292F30E0C9010895FC0186
:1015B00080915403882371F09FB7F89483E080935F
:1015C000E9002BE602C02093E8008091E80085FD49
:1015D000FACF9FBF8FEF9FEF9187808708956F921B
:1015E0007F928F929F92AF92BF92CF92DF92EF92B3
:1015F000FF920F931F93CF93DF933C018B01809158
:101600005403882329F481E0D30112968C9311C0EE
:101610003FB7F89484E08093E9008091D402882356
:1016200069F08091E80085FD07C03FBF81E0E301DC
:101630008A8388249924DAC01092D40288249924B9
:1016400074E0A72E60E4B62E21EFE22EF12C9AE38F
:10165000C92E83E0D82EC5C09091E400915F80919F
:10166000E80085FD19C03FBF8091E400891731F47F
:1016700081E08093D402F3018283B8C08091540347
:10168000882329F481E0D30112968C93AFC03FB731
:10169000F894A092E900E3CF8091F2002B2D281B53
:1016A000822F90E04817590708F4242F622F70E02A
:1016B000E801D701E0E4E21BE03428F4EE0FFF2755
:1016C000EC59F44F099480C089918C9389918C9343
:1016D00089918C9389918C9389918C9389918C9326
:1016E00089918C9389918C9389918C9389918C9316
:1016F00089918C9389918C9389918C9389918C9306
:1017000089918C9389918C9389918C9389918C93F5
:1017100089918C9389918C9389918C9389918C93E5
:1017200089918C9389918C9389918C9389918C93D5
:1017300089918C9389918C9389918C9389918C93C5
:1017400089918C9389918C9389918C9389918C93B5
:1017500089918C9389918C9389918C9389918C93A5
:1017600089918C9389918C9389918C9389918C9395
:1017700089918C9389918C9389918C9389918C9385
:1017800089918C9389918C9389918C9389918C9375
:1017900089918C9389918C9389918C9389918C9365
:1017A00089918C9389918C9389918C9389918C9355
:1017B00089918C9389918C9389918C9389918C9345
:1017C00089918C9389918C938E018091E80085FD9D
:1017D00002C0C092E800461B570B860E971ED0929F
:1017E000D2024115510509F037CF3FBFC401DF9147
:1017F000CF911F910F91FF90EF90DF90CF90BF900E
:10180000AF909F908F907F906F9008956091870226
:10181000709188028091890290918A020895809146
:101820005603817008958091560390E096958795B0
:101830008170089580915403811181E00895809111
:101840005403882311F420E009C08091560320E05E
:1018500090E083709070892B09F021E0822F089529
:10186000EAE4F3E08AE0DF011D928A95E9F710923D
:101870004C0388EE93E0A0E0B0E080934D0390939A
:101880004E03A0934F03B09350031092510383EA89
:1018900092E090934B0380934A0308952FEF3FEF1C
:1018A000FC0131872087D0D90FB6F8948091CD0202
:1018B0009091CE02A091CF02B091D0020FBEAC01A8
:1018C00080915403882329F068EC70E080E090E078
:1018D0005BC980915503882309F10FB6F894809174
:1018E000CD029091CE02A091CF02B091D0020FBE56
:1018F0009C0110C00FB6F8948091CD029091CE0259
:10190000A091CF02B091D0020FBE821B930B8B3FF0
:101910009105A8F480915503882361F70FB6F894D8
:101920008091CD029091CE02A091CF02B091D002D1
:101930000FBE841B950B895E934008F4C1CF0895B8
:10194000A1E21A2EAA1BBB1BFD010DC0AA1FBB1FC3
:10195000EE1FFF1FA217B307E407F50720F0A21B35
:10196000B30BE40BF50B661F771F881F991F1A94A2
:1019700069F760957095809590959B01AC01BD01CC
:10198000CF010895EE0FFF1F0590F491E02D09940B
:101990009111089581568A5108F48052855808950E
:0419A000F894FFCFE9
:1019A400526573657420686F6C646F6666200020EE
:1019B4006D696C6C697365636F6E647300506978EC
:1019C400656C5075736865722053757065727669BD
:1019D400736F7220524F4D20312E3320626F6F741B
:1019E400696E670053757065727669736F723A2019
:1019F4002052656164696E6720636F6E6669672053
:101A040066726F6D20454550524F4D2E00537570D0
:101A140065727669736F723A20636F6E66696720C8
:101A24007265616420636F6D706C6574652E00531C
:101A3400757065727669736F723A202052657365AA
:101A44007474696E67206D61696E2070726F63656E
:101A540073736F722E0053757065727669736F724B
:101A64003A20207772697465206E657720636F6E03
:101A74006669672066696C652E000D0A00537570EF
:101A840065727669736F723A202077726F7465207D
:101A94000020627974652873292E0053757065726D
:101AA4007669736F723A2020656E74657220726570
:101AB40073657420686F6C646F66662074696D6505
:101AC4002E0053757065727669736F723A20736174
:101AD40076696E67206E657720686F6C646F6666E2
:101AE4002074696D653A2000206D696C6C697365BA
:101AF400636F6E64732E0000C201004F72616E67E3
:101B04006500507572706C65005265626F6F740089
:101B1400486F6C646F666600436F6E666967004564
:101B24005854524143540000E10000000008FF00F3
:101B3400000000060975094208630852087D080080
:101B4400000000570AEF0A6F0AA80A930AD70A008E
:00000001FF
